:1000000060470020C14D000077BB0100F14D0000AA
:10001000F14D0000F14D0000F14D00000000000026
:10002000000000000000000000000000094B00007C
:10003000F14D000000000000B54A0000D139000079
:10004000814D0000E93C0100814D0000814D000020
:10005000814D0000814D0000814D0000814D000068
:10006000814D0000814D0000814D0000814D000058
:10007000814D0000814D0000814D0000814D000048
:10008000814D0000814D0000814D0000814D000038
:10009000814D0000814D0000814D0000814D000028
:1000A000814D0000814D0000814D0000814D000018
:1000B000814D0000814D0000814D0000814D000008
:1000C000814D0000814D0000814D0000814D0000F8
:1000D000814D0000814D0000814D0000814D0000E8
:1000E000814D0000814D0000814D0000814D0000D8
:1000F000814D0000814D0000814D0000814D0000C8
:1001000053B94AB9002908BF00281CBF4FF0FF317E
:100110004FF0FF3000F06CB9ADF1080C6DE904CE82
:1001200000F006F8DDF804E0DDE9022304B07047D2
:100130002DE9F047089E0D4604468E46002B40F000
:1001400082808A42174646D9B2FA82F24AB1C2F197
:10015000200105FA02F320FA01F1974041EA030E6B
:1001600094404FEA1748230CBEFBF8FCB9B208FBD9
:100170001CEE43EA0E430CFB01F098420AD9FB182F
:100180000CF1FF3580F01681984240F21381ACF1FA
:10019000020C3B441B1AA4B2B3FBF8F008FB10336B
:1001A00044EA034400FB01F1A14209D93C1900F1E2
:1001B000FF3380F00181A14240F2FE8002383C44CE
:1001C000641A40EA0C4000211EB1D4400023C6E965
:1001D0000043BDE8F08702B9FFDEB2FA82F2002ADE
:1001E0004FD1CB1B4FEA174E1FFA87F80121B3FB03
:1001F000FEFC250C0EFB1C3345EA034508FB0CF303
:10020000AB4207D97D190CF1FF3002D2AB4200F2AC
:10021000E7808446ED1AA3B2B5FBFEF00EFB105545
:1002200043EA054408FB00F8A04507D93C1900F152
:10023000FF3302D2A04500F2D7801846A4EB080491
:1002400040EA0C40C0E78B4208D9002E00F0AF8096
:100250000021C6E900050846BDE8F087B3FA83F13E
:1002600000294BD1AB4202D3824200F2B780841AFC
:1002700065EB030301209E46002EAAD0C6E9004E7E
:10028000A7E7C2F1200C01FA02F3974020FA0CF024
:100290004FEA174E21FA0CFC1843BCFBFEF1050C8B
:1002A0000EFB11CC1FFA87F845EA0C4501FB08F359
:1002B000AB4204FA02F409D97D1901F1FF3C80F048
:1002C0008B80AB4240F2888002393D44EB1A85B204
:1002D000B3FBFEF00EFB103345EA034500FB08F3C9
:1002E000AB4207D97D1900F1FF3C71D2AB426FD907
:1002F00002383D44EB1A40EA014178E7C1F1200C95
:100300008B4022FA0CF71F4320FA0CF405FA01F394
:100310004FEA174E25FA0CF51C43230CB5FBFEF9EA
:100320001FFA87F80EFB195543EA054509FB08FA41
:10033000AA4502FA01F200FA01F308D97D1909F180
:10034000FF3047D2AA4545D9A9F102093D44A5EBA2
:100350000A05A4B2B5FBFEF00EFB105544EA0544B5
:1003600000FB08F8A04507D93C1900F1FF352DD254
:10037000A0452BD902383C4440EA0940A4EB0804CC
:10038000A0FB02894C45C6464D4619D316D05EB136
:10039000B3EB0E0264EB050404FA0CFCCA404CEA11
:1003A0000202CC40C6E900240021BDE8F0873146B6
:1003B00030460EE7AC46EDE6184601E74345E6D287
:1003C000B8EB020E69EB07050138E0E72846D3E7F2
:1003D00060468FE78146BAE7614677E708464BE714
:1003E000ACF1020C3D4415E702383C4426E700BF5F
:1003F000704700BF00000000F8B5194E9DF8184086
:1004000096F8485015F0010721D196F832C0DFF870
:1004100054E0A6F84210E40004F018040CF0670C55
:1004200044EAC01463F34205A2FB0E0144EA0C0443
:10043000912303FB021186F8485007A3D3E9002358
:1004400086F83240FFF75CFE70643846F8BD0C2732
:100450003846F8BDAFF300808D49FD1A0700000053
:10046000E41D0020002AE784F8B59DF81840104EDE
:100470000546E400807DEA8404F01804A3FB0667C7
:1004800000F06700912244EAC111014302FB0377A7
:10049000A97505A3D3E9002330463946FFF730FE9E
:1004A000A862F8BDAFF300808D49FD1A0700000077
:1004B000002AE784000000002DE9F04190F8323076
:1004C000044600F1350190F8480003F0F903C0F349
:1004D00040008EB060F3861384F8323002230B9311
:1004E0000BF01EFEB4F8426094F820304448E461FA
:1004F0000025A6FB000165F30003912202FB061113
:10050000C4E9055584F820303BA3D3E90023FFF765
:10051000F7FD636C656006460933A6F1310293422C
:100520004FF03101A56028BF6564216034BFE360EE
:10053000E2600BF0EFFD676A0546002F42D006949B
:10054000B4F842702E48E268DFF8C0C00492A7FBFE
:100550000001912303FB07112A4B05934FF000087C
:100560000BAF25A3D3E90023CDF81CC00897CDF825
:100570000C80FFF7C5FD104619464FF47A72002330
:10058000FFF7BEFD2B46029002220321CDF800802A
:10059000404601960BF00CFD39460EF0D7FA0546A1
:1005A00060B994F8483043F0010384F848300220E1
:1005B00012F0D8FD28460EB0BDE8F0810C200EB038
:1005C000BDE8F081E1680C9731310DAB0CAA032036
:1005D0000D9712F0F5FB0D990029B0D00A4806A33B
:1005E000D3E90023A1FB0001FFF78AFD0C9D20F059
:1005F0007F400544A3E700BF8D49FD1A07000000B6
:10060000002AE78485EF000000CA9A3B41EB000016
:100610002DE9F04F0446808D4FF6FF7398428DB060
:100620000D46164600F0898094F8C03094F8BF005B
:1006300083420ED0C01A00F0030002281BD094F8A9
:10064000012194F800319A4230D100200DB0BDE86C
:10065000F08F94F82A7117F00108F0D194F8DD10AA
:1006600094F8DC208A4200F0AE83981E012284F8C0
:10067000C00084F8C12094F8703194F871219A4236
:1006800006D094F8722102F00601042900F0E583F7
:1006900094F8C1707B1E052B00F28783DFE813F00E
:1006A00070001E03960285034803BD0130480AF01E
:1006B000A7F958B394F8003184F801310379022284
:1006C00043F0030342710371C271D4F8883194F886
:1006D000022102722BB394F82A21910721D494F8B5
:1006E0008321D2071DD4D4F89421934204BF1A6801
:1006F000C4F89421D4F88C21B2B91A680260186049
:100700000368C4E963000BB9C4F89801B4F8B000F9
:1007100000289AD1B4F8AA30012B1CD9A4F8B03023
:1007200093E7D4F88C21E2B1D4F890311A680260D2
:100730001860C4F890010368E5E70E4A0E490F48B7
:100740004FF442731AF065FC404080F311884FF07B
:10075000030002DF68E70133A4F8B0300DB0BDE854
:10076000F08F0360C4E96200C4F89001CBE700BFDA
:100770006820002090E20100B4E3010024DE0100C3
:10078000DFF84084D8F80030002B00F05785E78E62
:10079000628E94F8DE301744374413F00303BFB27F
:1007A00040F0BA83B4F8C490A7EB09021FFA82FAAA
:1007B00012043FF544AF94F8481194F8492194F895
:1007C000DC0084F8DD008A4294F8BF0084F8C000A1
:1007D00009D094F84A2102F00702052A04BF84F8E0
:1007E0004911A4F8B030D8F800309C4204BF00236F
:1007F000C8F80030D4F8D880B8F1000F00F0F985BF
:10080000D8F80000002800F0F485B4F8E030E28D5C
:100810004168B4F8E2C0C4F8D810934200F0FE86F4
:10082000B4F8E4E0A28DA8F806200A210022A8F876
:100830002230A8F824C0A8F826E088F8041088F828
:10084000202041460EF006F90EF00EF92368002B29
:1008500009DAD4E9011223F000438A422CBFAD1813
:100860006D182360ED1AE38DB4F8E08013FB0AF3F2
:100870009BB2B3FBF8F118FB01F292B293421FFA5C
:1008800081FA80F0A485D31AC54840F2E24202FB07
:1008900003F3A3FB0001C0A3D3E90023FFF730FC5F
:1008A00020F07F400544638EA9EB07071E4494F9AE
:1008B0003D30BA44B244002B40F2E246A4F832A0E4
:1008C00006FB08F6C0F2F686D4F8E800B449B2A3F5
:1008D000D3E90023A0FB0101FFF712FC20F07F47C2
:1008E0000137B4F8E420B4F8E200AE4BAE49A4F806
:1008F0002E8042F2107C0CFB0262334400F1060CA5
:10090000013AB3FBF6F3B2FBF6F2A4F8AA209AB2CE
:1009100062453144A4F8B620B1FBF6F12086A4F874
:10092000AE1002DD121A063A92B294F8DE30A4F844
:10093000B2205B0744BF0023A4F8AC3002210120A1
:1009400015F0BEFB00220221824601200AF0FCF8CD
:1009500096494FF4D07220460AF088F8C21C5FFA1C
:1009600082FB934B00945A46012100200BF08CFB34
:1009700030F002030CD08F4A8F49904840F6641340
:100980001AF047FB404080F311884FF0030002DF6C
:100990008349E3688A4ADFF830C20493A6FB0189E1
:1009A000079200267CA3D3E9002340464946CDF8B0
:1009B00014C0089406940396FFF7A2FB104619464C
:1009C0004FF47A720023FFF79BFB73A3D3E9002354
:1009D0000446494640460294FFF792FB2B4601909D
:1009E000009730465A4601210BF0E2FA30F002033C
:1009F0000CD0704A7049714840F67E131AF009FB1A
:100A0000404080F311884FF0030002DFBAF1000F7D
:100A100040F036866FF0470018E6E38E628E94F859
:100A2000C45013441E44EF07B6B2AB4600F1C38373
:100A3000B4F8C620B61A37043FF501AE94F8BE20CC
:100A400094F8488094F849A094F8BF10B4F8467020
:100A500084F8C010D60708F007080AF0070A40F12A
:100A60001886D4F8F420100540F11386B4F8BC9031
:100A7000B9F5296F28BF4FF42969B9F5A47F4FF460
:100A8000296338BF4FF4A4790B9315F01C0F40F085
:100A90008286B4F8446015F0E00F0CD094F8492039
:100AA00094F84200690961F3020284F849200B9A24
:100AB0000EF050FC074694F8842194F84810D4F8BE
:100AC000D850C2F3C00262F3C30184F84810002D6D
:100AD00000F048872868002800F04487426894F8AE
:100AE0004830C4F8D8201BF0020F40F0F68794F885
:100AF000492003F00703984502F0070201F0D18076
:100B0000A18DE9804FF00E0C002185F8201085F8AA
:100B1000213085F8222085F804C029460DF09AFF7F
:100B2000D4F8D850002D00F02F872868002800F056
:100B30002B87B4F844304268C4F8D820B34209D3B4
:100B40004B4507D8B4F84630BB4203D30B9A9342C7
:100B500041F2BB80A4F84460A4F8467095F82030B8
:100B6000A28DEA8043F0030302210922297185F84E
:100B7000203085F82120B4F84230B4F84020AB840E
:100B800015232A8585F823302946EF846E850DF0DC
:100B900061FF0DF069FF52E58D49FD1A0700000065
:100BA00000CA9A3B7FC3C901FF5962024C1E002054
:100BB00089F6000090E20100E4E3010024DE010078
:100BC00031F60000EC1F0020D524010094F8C43059
:100BD00013F0030500F0948294F93D30002BBFF62A
:100BE0002EAD012D7FF42BADC74809F009FF054656
:100BF00000283FF424AD03790D2243F003030427BA
:100C000000F1080603714271C7710C21304613F0E0
:100C100077FA3146082204F1CE001AF0EFFF3A4687
:100C200005F1100104F180001AF0E8FFD4F88831D2
:100C3000002B00F0368794F82A21900700F13187C5
:100C400094F88321D10700F12C87D4F894219342A2
:100C500004BF1A68C4F89421D4F88C21002A01F04A
:100C60009B81D4F890311A682A601D60C4F89051B5
:100C70002B68002B01F022810DF01AFF0546002899
:100C80003FF4DDAC95F82030A28DEA8043F00303F9
:100C900002261721032285F8203085F8211085F8D7
:100CA000232004F22D1108222E7105F124001AF0E0
:100CB000A5FF94F82B3185F82C3094F82C3185F869
:100CC0002D30286829460DF0C5FE0DF0CDFE94F8B4
:100CD000C43066F3010384F8C430B0E4E38E618E5F
:100CE00094F8C4200B441E44D707B6B200F1BA8171
:100CF000B4F8CA30F61A35043FF5A1AC94F8BF3009
:100D000084F8C03004F13805052204F1C5012846F5
:100D10001AF074FF284605210AF03CF894F83D309B
:100D2000012260F3050384F83D3084F89C2186E4B9
:100D3000754809F065FE00283FF481AC94F8BF3097
:100D400084F8C030012302794371D4F8883142F02D
:100D5000030212210271C171002B00F02D8394F85F
:100D60002A21910700F1288394F88321D20700F10A
:100D70002383D4F89421934204BF1A68C4F89421C1
:100D8000D4F88C21002A01F0B180D4F890311A688F
:100D900002601860C4F890010368002B00F0F7842B
:100DA000B4F8AE30A4F8B03049E4584A584959482C
:100DB00040F28E331AF02DF9404080F311884FF045
:100DC000030002DF3BE494F8F12094F8F0C06245A0
:100DD0005AD194F8F92094F8F8C0624500F01A83CB
:100DE000A2EB0C02D1077FF52AAC94F8FA30DA07AF
:100DF00040F198879A0740F190870DF059FE01461F
:100E000000287AD094F8F83084F8F93090F820303F
:100E1000A28DC28043F0030381F820300220062215
:100E20000C23087181F8212081F8233094F8FB000D
:100E3000B4F8FE30B4F8FC20A1F8252081F8240095
:100E4000A1F8273008680DF005FE0DF00DFE94F8AE
:100E5000BF0094F8C030FFF7EDBB02F00701062990
:100E600001F2DF8101A050F821F000BFE71200007D
:100E70009106000091060000910600005D1200003E
:100E80005D12000091060000A2EB0C02D3077FF573
:100E9000D6AB94F8BE1011F0010700F01D840DF0E0
:100EA00007FE074648B394F8F03084F8F13090F824
:100EB0002030A28DC28043F0030309220220414664
:100EC00087F82030387187F8212087F8232007F130
:100ED000240008221AF0BDFED4F8F43087F824303C
:100EE000C3F307221B0C87F8252087F826303946E4
:100EF00008680DF0AFFD0DF0B7FD94F8BF0094F851
:100F0000C030FFF797BB00BF6820002090E20100CF
:100F100094DE010024DE010001200DF0ABFD8046CF
:100F200000283FF48CABC74809F06AFD064600284C
:100F30003FF485AB0DF0BCFDD8F80030D4F8D820D4
:100F40005A6094F8DE30C4F8D88003F00303012B14
:100F500000F04186022B00F03285BB4ABB49BC48F9
:100F600040F68F031AF055F8404080F311884FF097
:100F7000030002DF0021238E94F8DEC032793B4467
:100F8000063398B26FF3010C0C23A4F8C40084F864
:100F9000DEC042F003027371D4F8E830AD4F327115
:100FA0000022F271A7FB032394F8EC7022683772D9
:100FB000B4F8E070A6F80B70B4F8E270A6F80D7003
:100FC000C3F38F23B4F8E470A6F80F70002AA6F8D4
:100FD0001100A6F80930C4F8CC500ADAD4E90103AC
:100FE00022F0004283422CBFEB182B189A1AC4F847
:100FF000CC20994B06F109000122C4F8C800D96041
:10100000104602219C6009F0D3FD002840F0E685DF
:10101000D4F88831002B00F0428394F82A219007FD
:1010200000F13D8394F88321D10700F13883D4F88F
:101030009421934204BF1A68C4F89421D4F88C21F7
:10104000002A00F07F87D4F890311A6832601E6061
:10105000C4F890613368002B7FF4F1AAC4F898615A
:10106000FFF7EDBA774809F0CBFC054600283FF4BE
:10107000E6AA238E027994F8C4101E44B31DA4F886
:10108000CA306FF30001012342F00302082084F804
:10109000C4102A716871EB71052204F1C50128188A
:1010A0001AF0ACFDD4F88831B4F8CA20A5F80D20A8
:1010B000002B00F0B88094F82A21910700F1B3804A
:1010C00094F88321D20700F1AE80D4F894219342A2
:1010D00004BF1A68C4F89421D4F88C21002A00F0C7
:1010E0002687D4F890311A682A601D60C4F89051A0
:1010F0002B68002B7FF4A3AAC4F89851FFF79FBA7E
:10110000504809F07DFC064600283FF498AA94F95F
:101110003D30002B00F1040880F2628494F86230C4
:101120001D0700F1528694F8C550002D00F0E984A7
:10113000037994F8BE2043F003030371D00740F114
:101140003E86D4F8F430590740F139861122032342
:101150007572F27133727771D4F88831002284F895
:10116000C520002B00F0178594F82A21920700F182
:10117000128594F88321D70700F10D85D4F89421C6
:10118000934204BF1A68C4F89421D4F88C21002A31
:1011900000F01387D4F890311A6832601E60C4F8EA
:1011A00090613368002B00F0788594F8BF3084F8A4
:1011B000C030FFF744BA02200DF05CFC80460028E6
:1011C0003FF43DAA1F4809F01BFC054600283FF4E8
:1011D00036AA94F8C4306FF30003C3F3421242EA14
:1011E000930212F0070784F8C430DBB240F0768532
:1011F00094F8BF20A4F8C670980784F8C02000F1C6
:1012000020863B46394605226A712F722A796B7215
:10121000D4F88831698142F0030218212A71E971FA
:10122000002B7FF448AFD4F88C21002A7FF459AF0B
:101230002B60C4E96255C4F890515AE7C8F80040E1
:10124000FFF7A5BA6820002090E2010094DE0100BB
:1012500024DE01005917B7D17804002002F00702FC
:10126000B4F874C1B4F87811B4F87691B4F87A810E
:10127000A4F842C0042AA4F8461000F0BE8494F8F2
:101280007231062262F3020384F87231D4F8D87006
:10129000002F00F08C843868002800F0888497F8CC
:1012A00020304268B4F82CE0C4F8D82043F003039F
:1012B000022287F820304FF0090A1523A7F806E02C
:1012C000A7F824C0F9843A7187F823303946A7F883
:1012D0002890A7F82A8087F821A00DF0BBFB0DF01D
:1012E000C3FBFFF7D5B9DE4809F08AFB00283FF4BD
:1012F000CFA994F87221B4F87611B4F87A31A4F831
:10130000BA100127A4F8BC3067F3020284F87221F6
:1013100009270279477194F8BE70D4F8F4E081810E
:1013200042F0030202711B224FF0140C00210272E2
:10133000FA0780F807C0417240F1BF831EF4006FC6
:1013400000F0BB83B3F5296F28BF4FF42963B3F5D1
:10135000A47F38BF4FF4A4734FF42961D4F88821D7
:101360004181C381002A00F01F8394F82A319B0732
:1013700000F11A8394F88331DF0700F11583D4F864
:1013800094319A4204BF1368C4F89431D4F88C3174
:10139000002B00F0EA85D4F890311A6802601860DA
:1013A000C4F890010268002A00F03D85B4F8AE3020
:1013B000A4F8B030FFF76CB9D4F88C21002A7FF480
:1013C000E4AC0360C4E96200C4F89001E5E408FB02
:1013D000113340F2E242A3489BB202FB03F3A3FBAA
:1013E00000019DA3D3E90023FEF78AFE2D1AFFF723
:1013F0005ABA9D4A9D499E484FF40C6319F009FE64
:10140000404080F311884FF0030002DFD8F800005D
:10141000FFF7FBB994F849C194F84821944500F0CE
:10142000CA81DFF85882D8F80020002A00F02F8502
:1014300094427FF404A994F84A2102F00702052A95
:1014400000F2FE860FF2040C5CF822F03D1500005D
:10145000BD140000651400003506000035060000CC
:1014600035060000BB073FF5EAA80DF021FB014659
:1014700000283FF442AD90F8203094F84A21032030
:1014800060F30202034384F84A21A08D81F82030E2
:10149000022718230F7181F82130B4F84C21B4F8D9
:1014A0004E31C880B4F850018A84B4F85221CB84FC
:1014B0000F2308854A8581F8233019E594F84B718C
:1014C000002F40F0908594F93D30002BC0F2D68576
:1014D00094F84A3194F85401C4F8E870052262F394
:1014E0000203012284F84A3184F8EC20002800F03D
:1014F0005D86B4F84C31B3FBF0F3134413FB00F3F7
:101500009BB294F84A2194F8DE00A4F8E030C2F3CC
:10151000C0039B0020F0070243F002031343B4F81A
:101520005001B4F8522184F8DE30013984F8DD101E
:10153000A4F8E200A4F8E420FFF781B84848B4F822
:101540003690B4F832A009F05BFA074600283FF461
:10155000D4AC027994F84A11042060F3020142F0FD
:101560000302182084F84A1109EB0A033A717871D2
:10157000B4F84C01B4F84E11B4F85021388133441A
:10158000B4F852017981BA810F210022A7F81130F5
:101590004FF0FF33F881F9713A74FA743A757B753C
:1015A000BB75FB753B767B76BB76FB763B777B77B3
:1015B000BB77394620460DF035FF2268B4F8AE30CF
:1015C000C8F80040002AC4F86851A4F8B0300ADA1C
:1015D000D4E9011322F000428B422CBFEB186B18A8
:1015E0009B1AC4F86831234B13370122C4F8647185
:1015F000104602219C6009F0DBFA00283FF47DAC24
:10160000194A1D4940F67633194819F002FD404049
:1016100080F311884FF0030002DF6EE4228E6245F2
:101620007FF4FEA840F2E242B4F8E4E0B4F8AA1075
:1016300002FB03FB42F2107202FB0EB2013AB2FB54
:10164000FBF292B291427FF4EDA8032388F80430B4
:10165000FFF7F7B8AFF300808D49FD1A07000000CF
:101660006820002000CA9A3B90E20100D0E301000C
:1016700024DE01008804002040E10100EC1F00206E
:1016800001221046022109F05FFA6FF04700FEF7D1
:10169000DDBF4FF4A479CDF82C90FFF7F6B9D4F85C
:1016A0008C21002A7FF4CFAC3360C4E96266C4F8B1
:1016B0009061D0E4C34AC449C44840F6351319F0D8
:1016C000A8FC404080F311884FF0030002DF0027A0
:1016D000B4F8E080FFF705B9BD4809F091F98046FC
:1016E00000283FF40AAC94F8F130BA4AC4F8F42068
:1016F000013B092284F8F130427194F93D200379CD
:10170000002AACBF08220E2243F00303C271082254
:101710000371394610441AF09CFAD4F8F43088F872
:101720000830C3F307221B0C88F8092088F80A3018
:10173000D4F88831002B00F0C48194F82A2197074F
:1017400000F1BF8194F88321D00700F1BA81D4F869
:101750009421934204BF1A68C4F89421D4F88C21D0
:10176000002A00F03184D4F890311A68C8F80020BB
:10177000C3F80080C4F89081D8F80030002B00F046
:10178000A183B4F8AE30A4F8B030FFF7B6BBC4F80C
:101790009801FFF705BB94F8482094F84000C5F382
:1017A000820161F3020284F848204A460DF0D2FD1E
:1017B0000646FFF770B994F8707194F87121BA4237
:1017C00000F0268294F8721101F00702062A00F256
:1017D0004A850FF2080C5CF822F000BF8D1800005B
:1017E000350600003506000035060000F917000038
:1017F000F917000035060000B4F87431A4F842303F
:1018000001F00703B4F87821B4F87691B4F87A813E
:10181000A4F84620042B00F0C7830B46062262F38F
:10182000020384F87231D4F8D870002F00F0A58339
:101830003868002800F0A18397F820304268B4F897
:101840002CC0C4F8D82043F0030387F820300222CC
:10185000092387F821303A71B4F84210B4F84620D1
:10186000FA84152387F82330A7F806C0B984A7F8AF
:1018700028903946A7F82A800DF0ECF80DF0F4F81E
:1018800094F8BF0094F8C030FEF7D4BE504809F079
:10189000B7F8014600283FF430AB94F87221B4F851
:1018A0007601B4F87A31A4F8BA000127A4F8BC3064
:1018B00067F30202092784F872210A794F7194F8BC
:1018C000BE70888142F0030214204FF0000C0A71B0
:1018D000FF07D4F8F420C8714FF01B0081F809C04D
:1018E000087240F17C83100540F1C183B3F5296F84
:1018F00028BF4FF42963B3F5A47F38BF4FF4A47316
:101900004FF42962D4F88801CB81B2F5A47F38BFA7
:101910004FF4A4724A81002800F01C8394F82A3105
:101920009B0700F1178394F88331DF0700F11283DE
:10193000D4F89431984204BF0368C4F89431D4F8C1
:101940008C31002B00F05F84D4F890311A680A6063
:101950001960C4F890110B68002B7FF412AFC4F823
:1019600098110EE7174A1C49184840F6386319F0D9
:1019700050FB404080F311884FF0030002DF2868DD
:1019800094F8C4B0FFF7AAB80E4A13490F4840F6BE
:10199000646319F03EFB404080F311884FF0030070
:1019A00002DF2868FFF7C5B8D4F88C31002B7FF42C
:1019B000F2AC0260C4E96200C4F89001F3E40749A4
:1019C000FFF7D9BA90E2010094DE010024DE0100A5
:1019D00068200020FF490100D0E30100D52D01005F
:1019E00004F163073B462A4604F1C60104F23510B0
:1019F00013F0C6FD3946102204F184001AF0FEF8F7
:101A0000082204F17C0104F19D001AF0F7F894F823
:101A10007B0094F89C2094F8623084F8735043F073
:101A2000080365F3000042F0010284F87B0084F8AB
:101A3000623084F8745084F8755084F8765084F8D5
:101A4000775084F8785084F8795084F87A50C4F844
:101A500094504146C4F8985084F89C2020460DF0DC
:101A6000B1FED4F88831002B3FD094F82A21920798
:101A70003BD494F88321D70737D4D4F894219342E8
:101A800004BF1A68C4F89421D4F88C21002A7FF48A
:101A900081AB1A6832601E603368C4E96366FFF781
:101AA00081BBD4F88C21002A7FF4DBA82B60C4E929
:101AB0006255C4F89051FFF7DCB84FF4A47319468F
:101AC0004CE4D4F88C21002A7FF44DAEC8F80030E5
:101AD000C4E96288C4F8908150E694F8492003F084
:101AE000070302F00702FFF70BB8D4F88C21002A95
:101AF0007FF450AB3360C4E96266C4F89061FFF7CD
:101B000051BB04F163073B462A4604F1C60104F2C7
:101B1000351013F035FD3946102204F184001AF017
:101B20006DF8082204F17C0104F19D001AF066F8BA
:101B300094F87B2094F89C1094F8623084F87350E9
:101B400042F0010265F3000143F00803012084F82C
:101B50007B2084F89C1084F8623084F8745084F8F8
:101B6000755084F8765084F8775084F8785084F86B
:101B7000795084F87A50C4F89450C4F89850327967
:101B80007071D4F8883142F0030205213271F1718D
:101B9000002B7FF4E9AAD4F88C21002A7FF4FAAA5A
:101BA0003360C4E96266C4F89061FFF7FABAD34AB9
:101BB000D349D44840F6085319F02BFA404080F33B
:101BC00011884FF0030002DF3868B4F842C0B4F85F
:101BD0004610FFF764BBCC49FFF7CDB9C74ACB49E4
:101BE000C84840F6490319F014FA404080F31188C0
:101BF0004FF0030002DFFFF70BBAB4F87C21002A94
:101C000040F0638184F87131A4F8B020FFF73EBB47
:101C100094F8802194F8811191423EF410AD94F82B
:101C2000821101F00300032800F0728200287EF484
:101C300006ADB74808F0E4FE014600283FF45DA970
:101C400094F8823194F8842194F88371012060F330
:101C50000103C3F3820060F30202C3F3421060F396
:101C60000612C7F34007087984F8823167F3C3028C
:101C700084F88421C3F3820C40F00300C3F34213C1
:101C8000032716220871CA7181F808C04B724F7180
:101C9000002220460DF0C6FB73E5C4F89861FFF7FB
:101CA00084BA92457EF42CAF03232B7129460CF0A5
:101CB000D1FED4F8D850002D00F0CA812868002841
:101CC00000F0C6814368C4F8D83003232B7129463D
:101CD0000CF0C0FE0CF0C8FEFEF7B1BC238E1E4413
:101CE000B31DA4F8C6300CF0E3FED8F80030D4F8E9
:101CF000D8205A60C4F8D8800CF0DAFE0368D4F813
:101D0000D8205A6094F8C430B4F8C610C4F8D8008B
:101D1000C3F382075B09FFF776BA40F62733774AA9
:101D20007C4971E47A4808F06BFE00283FF4E5A88E
:101D300094F8F92094F8FA30013A84F8F9200279FD
:101D400043F00103062184F8FA3042F003024171A6
:101D5000D4F8883102710B216FF00E020C2701724A
:101D6000427205214FF0FF32C7718172C272027355
:101D7000002B00F0D18094F82A21970700F1CC8045
:101D800094F88321D10700F1C780D4F894219342BD
:101D900004BF1A68C4F89421D4F88C21002A00F0FA
:101DA000FF81D4F890311A6802601860C4F890017D
:101DB0000368002B7FF4E5ACC4F89801E1E40D233F
:101DC0003572F3710227FFF7C6B9414620460DF080
:101DD000F9FCD4F8883153B394F82A21950726D416
:101DE00094F88321D00722D4D4F89421934204BFDD
:101DF0001A68C4F89421D4F88C21002A00F0CA8112
:101E0000D4F890311A6832601E60C4F8906133686B
:101E1000002B00F0948094F82A3123F0030384F817
:101E20002A31FFF7C2B9C4F89801FFF7BFBAD4F856
:101E30008C21002AE4D13360C4E96266C4F8906161
:101E4000E5E70CF035FE0E23A28D88F8207088F8A7
:101E5000043094F84830D8F80000A8F80620C3F3FE
:101E6000020388F8213094F84930C3F3020388F85C
:101E7000223041460CF0EEFD0CF0F6FD94F8C43033
:101E8000B4F8C610C3F382075B09FFF7BCB994F836
:101E90004A3103F00703052B00F2D28101A252F868
:101EA00023F000BF3D150000BD14000065140000C4
:101EB0003F0600003F0600003F060000C4F89851AE
:101EC000FEF7DABEC4F898815BE494F87201B4F8C6
:101ED0007E71A4F87621002363F3020084F8720176
:101EE000A4F87C31A4F87A71FFF7D0B91A680260BF
:101EF00018600368C4E96300FEF74FBF90E2010079
:101F0000D0E3010024DE0100D12D010040E10100F9
:101F10006820002094DE0100D4F88C21002A7FF490
:101F200040AF0360C4E96200C4F8900140E71A685A
:101F30002A601D602B68C4E96355FFF7DAB8C4F85E
:101F4000986168E71A6832601E603368C4E96366A6
:101F5000FFF781B8D4F88C31002B7FF4F5AC086022
:101F6000C4E96211C4F89011F5E4136803601060CD
:101F70000268C4E96300FFF716BABC4ABC49BD4811
:101F800040F6085319F045F8404080F311884FF0AF
:101F9000030002DF38684FE41A682A601D602B686E
:101FA000C4E96355FEF765BEB4F87C21002A3FD131
:101FB00084F87171A4F8B02035E41A6832601E60AC
:101FC000C4E96366FFF7EDB81A68C8F80020C3F8E3
:101FD0000080D8F80030C4E96388FFF7CFBB4FF426
:101FE000A4731A468EE4A44808F00AFD01460028AE
:101FF0003EF483AF037943F003030B7111200322F6
:102000000F23C8714A710B7294F84B314B72204602
:1020100000220DF007FA94F8483184F84931002382
:10202000C8F8003094F8BF0094F8C030FEF702BB47
:1020300000200B4660F30203A4F87621B4F87E2159
:1020400084F87231A4F87C01A4F87A21FFF7EBBB85
:10205000864A8749874840F6476318F0DAFF4040D0
:1020600080F311884FF0030002DF28682AE6D205CA
:102070004FF4A47340F19E80A82243E47E4808F008
:10208000BFFC014600283EF438AF0379182243F024
:10209000030303714271B4F84C21B4F84E31B4F823
:1020A00050010A81B4F852214B8110238881CA81E2
:1020B000CB7194F854310B74B4F85631B4F858011C
:1020C000B4F85A21A1F81130B4F85C31A1F813002A
:1020D000B4F85E01A1F81520B4F86021A1F817301A
:1020E000B4F86231A1F81D30A1F81900A1F81B2045
:1020F00020463A460DF096F994F8483184F8493173
:1021000094F8BF0094F8C030C8F80070FEF792BA97
:10211000080784F88121C1F3820256D594F8822100
:10212000022161F3840284F8822194F88221570607
:102130004FEA521141D5022161F3471284F88221FE
:1021400094F8821194F848C094F8490094F88321D7
:10215000C1F382070CF0070C00F00700C2F3800205
:10216000BC4508BF00275200B0EB511F42F00102EE
:102170004FEA511108BF002142EA4112023B42EAF4
:102180008702062184F8C03084F8C42084F8C11086
:10219000FEF77EBA1A6832601E60C4E9636636E6EE
:1021A0001A6802601860C4E9630001E6B4F84E31B1
:1021B000FFF7A7B91A46FFF7A5BBC8070FD501213E
:1021C00061F3471284F88221BAE7D10710D594F859
:1021D0008221012161F3840284F88221A5E711F0B4
:1021E000040118BF042161F3471284F88221A7E794
:1021F00012F004020ED094F88221042161F38402CB
:1022000084F8822191E703680B600160C4E96311DF
:10221000FFF7A1BB94F8821162F3840184F8821164
:1022200083E7124A154913484FF4536318F0F1FE3F
:10223000404080F311884FF0030002DFFEF728BA18
:102240000A4A0E490B4840F6344318F0E2FE40407B
:1022500080F311884FF0030002DF94F8BF0094F878
:10226000C030FEF7E7B94FF4536358E590E2010040
:10227000D0E3010024DE01006820002094DE01008C
:102280002DE9F04F91F82070164612688FB00C4679
:102290004FF0000B1D46C2F808B0C7F3C013D2F8C8
:1022A00000A08DF82C302831062281460CA82F681A
:1022B00019F0A4FC94F82080A4F820B0717D96F861
:1022C00016B0C8F3401311F001018DF8283098467C
:1022D0004FF0060200F0EA8004F1220104F12F0021
:1022E00019F08CFCBBF1FF0F00F0E880584604F1B8
:1022F000230204F1220110F08FFE94F82230023301
:102300000CA984F82230062204F1290019F076FC89
:102310006B8AAA8AE386BAF830306387228712F084
:1023200071FC84F83C0038460DF08EFB0346288291
:102330002146E380484674680CF08CFB2B8AE380CE
:102340000D2320682371B8F1000F00F0AA8095F8E2
:1023500009E02B7A95F80BC0A97A95F8212041EA7B
:102360000C2143EA0E234B4042F0400201216B84D2
:1023700085F8212084F8201021460CF06BFB0CF02E
:1023800073FBD6F81090DFF878B1002409F25240C0
:1023900031233B60C7E9014451A3D3E90023A0FBEB
:1023A0000B01FDF7ADFEB5F812C0F36820F07F40D9
:1023B000F86022460221012040F2E24808FB0CF8B6
:1023C000A3F5877508F0C0FB50460CF01BFF821C7C
:1023D000D2B2454B00920121204609F055FE012260
:1023E000114623460094204609F04EFE38460DF073
:1023F0002BFB06974FF41973D6F808C03B4A089395
:102400003B4B07920593FB680493A5EB090588FBFA
:102410000B89C61C32A3D3E9002340464946ACF1E0
:1024200031070394FDF76CFE104619464FF47A729B
:102430000023FDF765FE2AA3D3E90023844649461D
:102440004046CDF808C0FDF75BFE25A3D3E9002385
:102450008446A5FB0B01CDF804C0FDF751FEF6B292
:1024600020F07F403B46009032462046012109F093
:102470009FFD30F002030CD01E4A1F491F4840F256
:10248000652318F0C6FD404080F311884FF003002B
:1024900002DF01221046022108F056FB0FB0BDE812
:1024A000F08F9DF8283084F8203065E704F12F0084
:1024B00019F0CFFBBBF1FF0F7FF418AF062200210C
:1024C00004F1290019F0C5FB9DF82C3084F8223066
:1024D0000CA9062204F1230019F090FB18E700BFB5
:1024E0008D49FD1A07000000A1240100A524010068
:1024F000D5240100B4E40100E4E3010024DE01007E
:1025000000CA9A3B000000002DE9F04F83B004465A
:1025100013F0E4FA10F0FF0F12D113F0C9FA13F020
:1025200097FB13F07DFB13F08BFD13F041FBCA48C2
:10253000214613F099F903B0BDE8F04F13F0A0BAAB
:1025400013F0ECFA5FFA80F813F072FBC7B213F0E5
:1025500079FB064613F080FDC5B213F06BFD824691
:1025600013F02EFB814613F0A3FA13F071FB13F066
:1025700057FB13F065FD13F01BFB002F40F0AB8001
:10258000002D40F0BA80FF26B8F1000FCFD0A37D18
:10259000190700F1A880002F40F0F38101200CF012
:1025A0005DFB0746002800F00382A3685FFA89F903
:1025B000002B00F0D580A37D1A0740F1EE8197F83B
:1025C000200010F00F0340F09E8097F82130252B5B
:1025D00000F2168104200CF041FB0028A7D013F074
:1025E0003BFCA36A804643B9E28C40F2712303FBB3
:1025F00002F3B0FBF3F203FB120823689748DB6891
:102600000722A3FB000102FB031191A3D3E90023DE
:10261000FDF776FDA0F24233434588D313F0AAFAC2
:10262000D4F808A013F088FA97F820300278C3F3A2
:102630008013DB0102F0500243F0250313432222F2
:10264000037042708146304611F0DAF9E37DDA0713
:10265000834640F13182002800F02E8299F8003044
:10266000484643F0400300F8023B0622594619F061
:10267000C5FA062207F1220109F1080019F0BEFA95
:1026800004220AF1080109F10E0019F0B7FA032239
:102690000AF10C0109F1120019F0B0FA012389F8CE
:1026A0001530BAF81230019313F0D6FBD4F810802D
:1026B00000F5DB63B8F1000F00F00E82019940F2E3
:1026C000E24202FB01F2B8F1000F02DB434540F2A7
:1026D000C7809044F7E7A07DF1B2C0F3C00011F0CD
:1026E000ADF9064650E7002F7FF458AF304611F0A1
:1026F00061FA00287FF452AF19E75FFA8AF011F00F
:1027000007FA064640E7012B4ED197F821300C2BF3
:102710007FF40DAF07F12808C0094146324611F099
:10272000B9FA00287FF456AFE37DDB0700F1FD81A5
:10273000A37D97F82000C3F38012B2EBD01F00F006
:102740002182C3F3C10398070AD597F92030002BE3
:1027500006DA97F82D3003F0C003402B3FF43AAF70
:1027600097F8200010F00F031ED197F82130252B89
:102770003FF6DDAE94F91620002AC0F22D81252BFC
:1027800098BF4FF000083BD8002B3FF4D0AEA368B1
:10279000002B7FF4CCAE002D14BF3146FF21424602
:1027A000484612F039F9C2E6062B00F00F81022BE1
:1027B00000F06881012B23D197F821300C2B7FF496
:1027C000B6AE07F1280AC0095146324611F062FA46
:1027D0008046002840F0A481A37D97F82000C3F331
:1027E0008012B2EBD01F00F0B381C3F3C10398078E
:1027F00004D597F92030002BC0F29E8197F8200075
:1028000000F00F0004287FF492AE97F82130252BBA
:102810003FF68DAEA37DDA077FF589AE13F08CF914
:1028200097F820300278C3F38013B3EBD21F7FF404
:102830007EAE0830062207F1220119F0CFF980465A
:1028400000287FF474AE97F821309DE7AFF3008045
:1028500000CA9A3B00000000154701008D49FD1A8F
:10286000CE4999F81520A8EB0303A1FB0313C3F38A
:102870008F230132A9F8163089F81520BAF8121002
:10288000BAF81420A38AA9F81C30A9F81810A9F8DE
:102890001A200AF11C01052209F11E0019F0AEF9F7
:1028A0009AF8222099F8233062F3040389F8233040
:1028B00012F0A8F999F8233060F3471389F8233010
:1028C000484613F0B7F813F0FFF8002840F01A81DB
:1028D000B348214612F0C8FF237943F00102DB0719
:1028E000227100F101810CF0D7F9082382460371AF
:1028F0004FF6FF73242297F82070C380494620309A
:1029000019F07CF99AF82030CAF80840C7F340174C
:1029100067F345138AF8203013F05CFA0021CAF8F7
:102920001000084613F096F80021A8EB0000CAF842
:102930001400084613F084F8002D08BFFF268AF81B
:102940001E60E37DCAF8180013F0010300F0CA808E
:10295000BBF1000B18BF4FF0010B9AF81D306BF361
:1029600000038AF81D300CF097F95146CAF80C00A4
:10297000DAF800000CF0A8F903B0BDE8F04F0CF055
:10298000B3B93146284611F051F900287FF406AE5C
:10299000A37D1B077FF5CBAD00E6FF2E75D0237E10
:1029A0009B1BB3FA83F35B09002B7FF408AED7E6D9
:1029B0007C4A7D497D4840F2AA2318F02AFB40401A
:1029C00080F311884FF0030002DFEEE597F8213025
:1029D000252B7FF6CFAE13E7A268002A7FF4CFAE97
:1029E000962013F045F9002013F0AAF8002D14BF2B
:1029F0003146FF214846002212F00EF800287FF4ED
:102A000096AD13F099F897F820300278C3F380134D
:102A1000DB01054602F0700243F0030313430C226E
:102A200030462B706A7010F0EBFFE37DDE07014645
:102A300040F19980002800F096802B78284643F0DA
:102A4000400300F8023B062219F0D8F807F12201F2
:102A5000062205F1080019F0D1F8284612F0EAFF25
:102A600013F032F8002840F0A98013F0EDF9A37DAF
:102A70004F4843F001032146A37503B0BDE8F04F72
:102A800012F0F2BE97F8213079E697F82000C3F3F0
:102A90004013C0F3801293427FF464AE062207F124
:102AA000220104F11F0019F099F8B0FA80F35B09D4
:102AB000002B7FF484AD53E6A37D99F80020C3F387
:102AC0008013484663F3861200F8022B04F11901C3
:102AD000062219F093F8CCE589F8168089F817805A
:102AE0009846CBE69B4638E72E4A32492F4840F2BB
:102AF000493318F08EFA404080F311884FF00300FC
:102B000002DFF0E6274A2C49284840F2233318F028
:102B100080FA404080F311884FF0030002DFD7E6CF
:102B200097F821304FF000082EE6304610F068FF8D
:102B300000287FF415AEFBE597F82D3003F0C003B5
:102B4000402B7FF45BAE97F821304FF001081BE675
:102B50005146062204F1190019F040F800283FF40C
:102B600072AEA37D41E6A37D2A78C3F38013284685
:102B700063F3861200F8022B04F11901062219F002
:102B80003DF863E74146062204F1190019F026F8E2
:102B900000283FF41FADA37DD3E500BF5917B7D17F
:102BA0005549010074E90100D4E9010024DE010067
:102BB0002947010018E10100F8E90100064A074928
:102BC000074840F2A53318F024FA404080F31188FA
:102BD0004FF0030002DF48E774E90100F8E9010063
:102BE00024DE010008B5064B186840B1132105F03A
:102BF00085F820B1BDE80840024818F00ABA08BDBF
:102C0000E0080020D8ED010008B5034818F001FAEB
:102C1000BDE80840FFF7E6BFEBED010008B503484B
:102C200018F0F7F9BDE80840FFF7DCBF12EE01002D
:102C3000F0B5254B8BB06A4603F110060446944666
:102C4000374618685968154603C50833B3422A4603
:102C5000F7D11B782B706146204601F0DDF906465E
:102C600020B91A4818F0D5F9FFF7BCFF05AD164B8F
:102C70002A4618685968AC46ACE803000833BB42E2
:102C80006546F6D11B788CF800303146204618F0A6
:102C90005AFD054620B90E4818F0BBF9FFF7A2FF10
:102CA0000C4BAA889A80204618F05FFD0A4B0B490E
:102CB000186806F0FFFF014620B1094818F0A9F98D
:102CC000FFF790FF0BB0F0BDE7D9010025EE010042
:102CD00044EE01004C010020E008002040010020EB
:102CE00077EE010008B50849084B8881186807F09D
:102CF000FDFB014630B1064818F08BF9BDE80840ED
:102D0000FFF770BF08BD00BF4C010020E0080020A5
:102D1000A2EE010010B50C4621B1BDE810400A48F2
:102D200018F077B9094818F074F9094B1C60094B81
:102D30004FF4A0221C701268C3F80120BDE81040B7
:102D40000520FFF7CFBF00BFB9EE0100D3EE0100B1
:102D5000DC0800207E320020F8B5174D174E2C6895
:102D600030684FF4A0273B681C1B19F094FF04380F
:102D700084421BD23C682A68A41AA4B22146104897
:102D800018F047F929680F48012301F5A02100F840
:102D9000013B2246083118F031FF2B68601C2344A8
:102DA0002B6080B2BDE8F840FFF79CBF306819F097
:102DB00072FF041FE1E700BFDC080020E0080020EC
:102DC000F1EE01007E32002008B5154B1A7831B1C2
:102DD000144818F01EF9BDE80840FFF703BF012AA8
:102DE00006D0022A16D0CAB9BDE80840FFF7B4BF22
:102DF0004FF4A02211680C4A12689142F4D80222C2
:102E00001A700A4A1268C3F801200520BDE808407C
:102E1000FFF768BF064818F0FCF8DCE708BD00BF04
:102E20007E32002003EF0100DC08002004000500D2
:102E30002EEF010001F4C043B3F5C04F2DE9F0417E
:102E4000D0E90186C76805460C465BD13549364A4C
:102E5000364840F2952318F0DCF8354818F0D9F8D8
:102E600040F29521304818F070FB04F4E823B3F5E4
:102E7000C82F0ED12F492C4A2C484FF4277318F035
:102E8000C8F82D4818F0C5F827484FF4277118F0F6
:102E90005CFB04F4C823B3F5804F0ED12749224AC6
:102EA000224840F2A32318F0B4F8254818F0B1F8EE
:102EB0001D4840F2A32118F048FBD8F8003019054E
:102EC0000ED42049184A194840F2A92318F0A1F855
:102ED0001D4818F09EF8144840F2A92118F035FB5F
:102EE000220404D53B681B0548BF84F4C024B6699E
:102EF00004F4C02304F4B0322846B4460B21BDE8E4
:102F0000F0416047002BB0D11049074A074840F212
:102F1000992318F07EF80E4818F07BF840F29921BA
:102F2000A0E700BF7EEF010054EF0100BFEF0100FA
:102F3000DCEF01005DF00100DEF0010032F1010084
:102F40007CF10100C1F10100FFF1010008F0010076
:102F500032F0010070B503788AB004460E4607AD22
:102F6000032B20D8DFE803F002191B1D1149284666
:102F700018F008FE63780493A3780393E378029330
:102F800023790193637900930B4AA37905951E2158
:102F9000304618F04BF80AB070BD0849E7E7084919
:102FA000E5E70849E3E7084A0A21284618F03EF811
:102FB000E0E700BF11F201003AF2010018F201004F
:102FC0001FF2010029F2010033F20100F0B50446BE
:102FD0008FB049BB19F085F8144B1860204619F0E2
:102FE0008AF806A9FFF7B6FF114806A918F011F8EC
:102FF000104B01AA03F110071646186859681546C8
:1030000003C50833BB422A46F7D11B782B703146E3
:10301000094A0023204601F02FF8014620B1074855
:1030200017F0F7FFFFF7DEFD0FB0F0BDE00800205E
:103030005DF20100F8D90100340100206EF20100B8
:1030400008B50D49BFF35B8F51E8003F43F0010223
:1030500041E800200028F7D1BFF35B8FDB0703D4E2
:10306000064808391AF094F9054B18684FF40051D6
:10307000BDE80840FFF7DEBED8080020B0310020D0
:10308000F0080020024B18684FF4B821FFF7D2BEB9
:10309000F008002030B50E4C2368834289B00D46FD
:1030A00014D119F028F86946FFF754FF09482A4659
:1030B000694617F0AEFF206819F01AF80023236064
:1030C000FFF7E0FF10B9044817F0A3FF09B030BDC7
:1030D000E00800209EF20100C0F2010008B5064899
:1030E00017F097FFFFF7CEFF20B9BDE8084003486F
:1030F00017F08FBF08BD00BFDBF20100EDF2010049
:1031000008B5012001F022FB014650B1064817F036
:1031100080FFFFF7B7FF30B90448BDE8084017F05B
:1031200078BF0348F9E708BD0AF30100EDF201009A
:103130002DF3010070B5002088B003F015FF0446A0
:1031400028B101463D4817F064FF08B070BD3C4807
:1031500004F018FA01236846CDE9004402948DF882
:10316000043001F0BDFA374801F022F9364B03AACA
:1031700003F11006154618685968144603C408334D
:10318000B3422246F7D11B7823702946032001F071
:103190001FF9014608B12D48D5E7042001F07CF95C
:1031A000014600283DD02A48CDE76368E6681B68E1
:1031B0001B050ED42749284A284840F2EE2317F071
:1031C00028FF274817F025FF234840F2EE2118F08A
:1031D000BCF9A36840F211121B680B2120469847E6
:1031E00008B1204826E033681F49286843F400638B
:1031F00033601E4B4B604FF400638B608368DB6968
:10320000002BEED0012298470028EAD1FFF73AFFC1
:103210000028E6D1164B174A1860C3E9012016486A
:1032200008E01648164D14F04FFB044628600028AD
:10323000BBD1144817F0EDFE87E700BF3AF3010059
:103240002001002044010020F8D901005AF30100B8
:1032500083F30100C1F1010054EF0100BFEF010051
:10326000FFF10100CFF30100E4080020413000002D
:10327000D008002001310000C0F20100F1F301008C
:10328000F0080020A9F301000B6801330B60014B2B
:103290001B6818475C0100202DE9F04F85B09B4664
:1032A0000E9CDFF89090012CB8BF0124012B0CBFBD
:1032B00030232023154606468A46029301274FF005
:1032C0000A080022B5FBF9F301930AB9A9451FD8F2
:1032D000019B514603F13000B04701370122019BA9
:1032E00008F1FF38B8F1010F09FB13554FF00A033D
:1032F000B9FBF3F9E6D1514605F13000B047BBF117
:10330000030F02D1E41B002C0EDC05B0BDE8F08FEA
:103310004445E4DBBBF1020FE1D802980392514629
:10332000B0470137039ADAE751462020B047013C05
:10333000E9E700BF00CA9A3B014B1860704700BF25
:103340005C0100202DE9F04F8DB01C460027531E74
:1033500005468B4603934FF0FF39B846002605E03B
:103360006EB9252800F071815946A847039B13F8D0
:10337000010F03930028F3D10DB0BDE8F08F7A2838
:103380000AD8622810D8302854D045D8252800F013
:103390005A812D2800F05F8159462520A847039BBC
:1033A00018785946A847D9E7A0F16303172BF3D83B
:1033B00001A252F823F000BF3F3600008334000022
:1033C0009933000099330000993300006534000000
:1033D0008334000099330000993300006534000005
:1033E000993300009933000099330000253500001F
:1033F00099330000993300000F3600009933000024
:10340000F3340000993300009933000021340000A8
:10341000993300006534000039281AD95828BBD1E7
:10342000039B1B78702B40F0888054F8043B069374
:10343000002290E0B9F1000F0EDAB8F1000F00F0B1
:103440000D81A0F13009B8F1000F08BF4FF002085C
:103450008CE7B9F1000FF4DB0A2303FB0909A9F19A
:103460003009F0E7682803D1682F06D148277DE7A7
:103470006C2802D16C2F00F0F480002F8CD107460D
:1034800074E77A2F02D154F8046B21E06C2FFAD044
:103490004C2FF8D1073424F00704F4E80223CDE9D7
:1034A0000423049B13F10041059B089143F10001A3
:1034B0000991DDE9082300214FF0FF30994208BF50
:1034C000904204D25946284617F082FD46E7049EF2
:1034D000002E05DA59462D20A847764209F1FF391A
:1034E000CDF800904346324659462846FFF7D4FEB1
:1034F00034E77A2F02D154F8042B0FE06C2FFAD066
:103500004C2FF8D1073424F00704F4E802230021FB
:103510004FF0FF30994208BF9042D3D3CDF80090CE
:103520004346E1E759463020A84759467820A84746
:103530004FF008094FF0010872E76C2F3FF475AFA8
:103540004C2F7FF472AFE31D23F007031C4654F8A1
:10355000082B06925A6800211023049107914FF01E
:10356000400AAAF1040A0699CAF1200EAAF1200C19
:1035700021FA0AF002FA0EFE40EA0E0022FA0CFCD2
:1035800040EA0C0010F00F0007D1079911B9BAF109
:10359000000F25D14FF0300C05E009288CBF4FF00B
:1035A000570C4FF0300C6044594640B20A920793D2
:1035B000A847049B0A9A01330493079BBAF1000FB2
:1035C00023D1B8F1030F7FF4C9AE049BC3EB4906C6
:1035D000002E7FF7C3AE59462020A847013EF7E7EB
:1035E000591E99450A9107DBB8F1010F06D10B92DC
:1035F00059463020A8470B9A0A9BB2E7B8F1020F50
:10360000FAD10B9259462020F4E70796A9E754F81F
:10361000046BB24653461AF8010B68B9B8F1030FB0
:1036200021D19E1BA9EB0606002E7FF797AE5946C7
:103630002020A847013EF7E75946A847EAE754F893
:10364000040B5946AEE65946ACE63746B0464FF055
:10365000FF3901268AE64FF0030887E64FF001089C
:1036600084E64C2782E6064680E600BF07B50B4697
:10367000002102460191034801A9FFF763FE03B050
:103680005DF804FB8932000030B585B0CDE9010159
:10369000044600250548039501A9FFF753FEDDE91F
:1036A00002309842B8BF255405B030BDEDAF0100DF
:1036B00008B504464FF02002EFF3118382F311881E
:1036C000BFF36F8F17F067FF204601F059FF0348E3
:1036D00017F09FFC01F0F2FAFCE700BFFEF30100D7
:1036E00010B50748074C14F0EFF8074B1860204658
:1036F00001F028FF2046FFF71FFE002010BD00BF8D
:1037000027F401000D370000F40800200A2838B51E
:10371000074D044604D1286883680D215B689847EB
:1037200028688368E1B25B689847204638BD00BFCF
:10373000F408002038B5CCB2012C054609D90B4954
:103740000B480C4A7F2317F064FC0A487F2117F0CE
:10375000FCFEEB680C2104FB01314B7A23B9087A9B
:10376000B0FA80F0400938BD0220FCE769F401009E
:10377000BFEF01002EF401002DE9F84FCEB2012E6B
:1037800007468946144609D941494248424AEF232F
:1037900017F03FFC4048EF2117F0D7FED7F804A000
:1037A000D7F80C80002C53D14FF02003EFF3118B8E
:1037B00083F31188BFF36F8F0C2306FB03831D7AFD
:1037C0000135EDB21D725DB934493248324A4FF4C9
:1037D000807317F01EFC30484FF4807117F0B5FE6F
:1037E0008BF31188BFF36F8F44B34FF080430322F4
:1037F000C3F808230C22724308EB0203597A91B9EB
:103800004FF02000EFF3118C80F31188BFF36F8F1E
:1038100021605868002833D15C6048F802408CF37E
:103820001188BFF36F8F4FF080430322C3F8042346
:1038300021B1D4E90132494638469847012D05D1D6
:103840000AEBC606B37803F180431D6000201CE03C
:1038500063684BB912490F480F4AF32317F0D9FB9D
:103860000D48F32117F071FE0C23734358F8033011
:103870009C4208D0002B97D01B68002BF8D193E70F
:1038800004605C60CBE76FF00F00BDE8F88F00BF0D
:1038900069F40100BFEF01002EF40100DBF4010028
:1038A0008DF4010070B5CCB2012C054609D9184938
:1038B0001848194A942317F0ACFB1748942117F0C5
:1038C00044FE6968ED684FF02003EFF3118683F33F
:1038D0001188BFF36F8F0C226243AB18187A90B136
:1038E0000138C0B2187288B901EBC404A850E2785C
:1038F000586002F1804201211160587286F31188EC
:10390000BFF36F8F70BD6FF04400F7E70020F5E75D
:1039100069F40100BFEF01002EF40100F8B5124E6A
:10392000F3680C2404FB00340123054663724FF056
:103930002003EFF3118183F31188BFF36F8F2368A6
:103940002BB160681A682260834208BF626081F30D
:103950001188BFF36F8F03B9F8BDD3E9017229460F
:103960003046B847E3E700BFD4050020154B07B544
:103970001A6882B14FF08042D2F80423D1070AD5E9
:1039800000221A601B680093009B0F4BDB68587A7B
:1039900008B9FFF7C3FF0D4B1A6882B14FF08042A0
:1039A000D2F8042392070AD500221A601B680193FB
:1039B000019B012003B05DF804EBFFF7AFBF03B03C
:1039C0005DF804FB00010040D40500200401004024
:1039D00010B5064C064907482246172317F019FB75
:1039E00020461721BDE8104017F0AFBD0DF50100CE
:1039F000B71B0200BFEF0100821C084B22F07F4280
:103A0000C3F84025D3F80425904200D17047D3F87D
:103A10000405821C22F07F42F2E700BF0010014043
:103A2000044B002282B01A601B680193019B02B014
:103A3000704700BF4011014008B5FFF7F1FF074B89
:103A4000074AD3F840051368C01A20F07F400344AA
:103A50001360BDE8084016F087BC00BF00100140AD
:103A60001009002038B5144813F02EFF00B3836806
:103A7000124D1B68012100249847C5F80845FFF73F
:103A8000CFFF0F4B4FF40032C3F880214FF4803347
:103A9000C5F8043322460121112001F077F81120E6
:103AA00001F042F8074A0123136020462B6038BD1D
:103AB0004FF0FF30FBE700BFEDF4010000100140C4
:103AC00000E100E00810014070B52A4B2A4C19684B
:103AD000D4F80425294D521AB0F1FF3F08BF2846FB
:103AE00022F07F43120234D4013820EAE070A84269
:103AF000A8BF284601334FF480361844C4F8086341
:103B0000A84294BF0D184D19D4F80405D4F84015F7
:103B1000FFF786FF091A21F07F4120F07F4301293A
:103B2000C4F84035C4F8446304D10F2019F085FC73
:103B3000FFF776FF124B4FF40032C3F88021D4F820
:103B400004052B1A23F07F43012B04D1FFF754FF08
:103B50000BE00020CEE725F07F43C4F84035D4F8D1
:103B600004052D1A023D2B02F0D44FF48033C4F823
:103B7000043370BD1009002000100140FFFF7F00DA
:103B800000E100E038B54FF02003EFF3118583F337
:103B90001188BFF36F8F1A4816F0C2F868B9194A36
:103BA00019491A485C2317F034FA1549184817F0D8
:103BB00030FA14485C2117F0C8FC114816F0CEF812
:103BC000144B0F48D3F80445134B1B68E41A24F038
:103BD0007F4416F0B3F868B90A4A10490B488423A9
:103BE00017F017FA06490E4817F013FA0548842112
:103BF00017F0ABFC85F31188BFF36F8F204638BDFB
:103C00001409002049F501006FF50100BFEF010024
:103C100084F5010000100140100900209CF501000E
:103C2000B3F5010038B5C51C25F00305742D09D97D
:103C300017491848184A502317F0EBF91648502135
:103C400017F083FC154CD4F83C3123B1D4F844313F
:103C50002B44742B18D9782014F0DAF978B10023AA
:103C60000360D4F840215AB9C4E94F00C4F8443184
:103C7000D4F844311A1D1D441044C4F8445138BDD1
:103C80001060C4F84001F1E7D4F84001F0E700BF4C
:103C9000F3F50100BFEF0100C8F50100180900208D
:103CA0002DE9F8431F4CD4F83431222B06460D463B
:103CB00007D91D48452117F0ACF900273846BDE863
:103CC000F88303681B78022B0DD8184A12F803906A
:103CD00005EB0900FFF7A6FF074658B91448452130
:103CE00017F097F9EAE71348452117F092F94FF0DA
:103CF0000009EDE7D4F8343131685A1C0333DB0096
:103D000003F10408C4F83421A0441C44338A2381FD
:103D1000B37CA372284460604A4617F06FFF4746A1
:103D2000CCE700BF1809002043F60100B8F90100F4
:103D300080F6010064F601000A48BFF35B8F00F5CE
:103D40009C7353E8002F42F0020243E8002100294F
:103D5000F7D1BFF35B8FD0F848311B680BB14168D6
:103D6000184770471809002070B50B4C05462046CF
:103D700017F030FC6FF0010104F59C7017F041FC66
:103D8000D4F848319B682BB1626820682946BDE8A9
:103D90007040184770BD00BF1809002070B5044678
:103DA00030B90D48452117F034F92546284670BD35
:103DB0000378022B0AD8094AD65C3046FFF732FF57
:103DC00032462146054617F019FFEFE70448452122
:103DD00017F01FF90026F0E7A2F60100B8F901007C
:103DE00064F601002DE9F3410D467D490B688342DD
:103DF0000F4608D07B48452117F00BF96FF00D00F6
:103E0000FFF7B2FF34E0137C032B00F0B38011D82E
:103E1000022B29D1744A7549754840F2B31317F043
:103E2000F8F8744817F0F5F86F4840F2B31117F03E
:103E30008CFB1DE0052BEDD1002D40F08280D1F8E8
:103E40003431012B7AD90B8C01330B8203230B768F
:103E5000083105F083FF044650B10246452166480B
:103E600017F0D7F82046CBE725B9084617F0D8FB5E
:103E700000244BE008212846D5F80C80FFF710FFFE
:103E8000002406464FF4205328688DF8044001A909
:103E9000ADF8063017F04CFFB0B142F601032868C8
:103EA0008DF800406946ADF8023017F041FF58B177
:103EB00052494F484C4A40F2171317F0AAF84A48A3
:103EC00040F2171117F041FB36B94D48452117F064
:103ED000A0F86FF00B0093E7304617F0B5FB0546EE
:103EE0000822414617F08AFE2868FFF757FF04466C
:103EF000286030B94348452117F08BF86FF00B006C
:103F00005AE0AA88B388934204D10124204602B023
:103F1000BDE8F08105233B76B3883B493868FA82D7
:103F200001330024BC603B8205F018FF02460028E4
:103F30009ED03648452117F06CF8DFE7FFF7FCFE0E
:103F400096E7002442F6030328688DF8044001A98F
:103F5000ADF8063017F0ECFE50B908212846FFF7FF
:103F60009FFE04460028D0D12A8A29484521E2E74D
:103F70002146F3E7002DE1D000238DF804302868B6
:103F800042F6030301A9ADF8063017F0D1FE58B18F
:103F900020491748144A4FF4C07317F03AF81248F2
:103FA0004FF4C07117F0D1FA298A0D4817F0F4FACE
:103FB000044620B96FF00200FFF7D6FEA6E7EC68D2
:103FC00017F062FB05462146082217F017FE286805
:103FD000FFF7E4FE04462860002896D18EE700BF74
:103FE00018090020BBF60100C8F50100B71B02004C
:103FF000BFEF010062F9010070F80100E2F6010074
:10400000E3F7010011F801002009002044F8010045
:10401000A0F80100E3F801002DE9F047DFF84C803B
:10402000DFF84C90DFF84CA006460F4600242146EE
:10403000304617F03DFB0446A8B117F025FB0546B6
:1040400058B94946504640F2FB13424616F0E1FF8C
:1040500040F2FB11404617F078FA2968384617F00D
:1040600067FE0028E3D12046BDE8F087C8F50100CF
:1040700078F90100BFEF010070B50546084619B197
:10408000097811F0FD0F3DD1002A3BD0BFF35B8FC3
:104090001F4C04F59C7656E8001F41F0010C46E8E1
:1040A00000CEBEF1000FF6D1BFF35B8F11F001011E
:1040B0002BD1C4E90053C4E94F11C4F84821C4F816
:1040C0003411C4F8441108B1FFF768FE114BE360E6
:1040D000012323824FF6FF73A060E3820E49002381
:1040E0002846237605F03AFE044648B102464521AB
:1040F0000A4816F08EFF0A486FF0010117F081FAA6
:10410000204670BD6FF01504FAE76FF04404F7E73E
:1041100018090020E53D0000200900208CF901006D
:10412000500A002070B5064D0FCD86B001AC0FC40B
:1041300001AE0FCE034C0FC42B68236006B070BDD8
:1041400090D90100940A00202DE9F04F294C8BB042
:1041500094F82130009106460392002B3CD04B7816
:1041600094F828B094F820A0019300273D465745C5
:104170000ED386F84050BBF1000F2BD0AA452BD1AF
:10418000737801337370012386F83830B37023E0FD
:10419000009B039A5B680293174B13F802804FF061
:1041A0000009019B994505D3BBF1000FE1D101370F
:1041B0001834DCE7029B424603EB090105A817F01F
:1041C000E1FD0028F0D0A16805A817F0B1FD30B1DD
:1041D000C144E6E7002DD3D10BB0BDE8F08F06EB6C
:1041E0008502A168D1630135EDB2BBF1000FDED1CC
:1041F000BFE700BF640A0020C7F901002DE9F047BE
:104200000378192B05460C4612D8012B12D9023B14
:10421000172B0FD8DFE803F07B7B8181838331117B
:104220000E0E0E0E0E0E0E0E0E0E0E0E0E0E0E5666
:10423000FF2B76D00120BDE8F087504E7378002B1D
:10424000F8D096F800A090F8018000275745F1D2E9
:1042500006EB471969684246484617F0B0FC50B96A
:104260006378C4F81C9001336370012384F82080C4
:104270002376A370DEE70137E8E7404EF378002BA2
:10428000D8D0B37890F8018003EB4313F718BE42FF
:10429000D0D096F82230434512D806F10209696859
:1042A0004246484617F08BFC50B96378C4F8289012
:1042B00001336370012384F82C8084F82430D8E71C
:1042C0002136E4E72D4B93F82520002AB2D093F84D
:1042D000246047780022B242ACD2022F15D1686820
:1042E00090F800C0417803EB420041EA0C21808C39
:1042F00088420AD1123203EB4203A364637801338C
:104300006370012384F84430B3E70132E3E700220D
:1043100029462046FFF718FF8CE70122F8E7022222
:10432000F6E7164B93F827209846002A82D093F898
:1043300026A0994600275745BFF47CAF99F8462040
:104340006B78934215D309F126066968304617F059
:1043500045FC70B907EB47134344266593F8463094
:1043600084F85430637801336370012384F84C304F
:104370007FE7013709F12109DDE700BF640A00206A
:10438000F8B50A4B1C6805460E4617460CB1043CAE
:1043900004B9F8BD23681B681BB13A46314628466C
:1043A0009847231DF5D06468F0E700BFB00A0020ED
:1043B00050B100234360054B5968021D11B9C3E990
:1043C000002270470A605A60704700BFB00A0020A0
:1043D000F8B505460C46002948D026484FF0FF3274
:1043E0004FF0FF3313F030FE032D0CD038D9043DCD
:1043F000012D94BF6FF00B046FF015041D4813F0EE
:1044000007FF2046F8BD1C4A92F8203043BB2378B2
:10441000012B0CD0022B11D02BBB2068D06002F1F5
:104420000C039360012382F820300024E6E794E82F
:10443000030002F10C0383E80300F2E7234602F1D4
:104440000C0403F11007264618685968254603C571
:104450000833BB422C46F7D11B782B709660E1E7FE
:104460006FF00B04CAE76FF01504C7E76FF015048F
:10447000C7E700BFD0060020640A0020054B0022D9
:104480005A70DA705A7183F8212083F8252083F856
:1044900027207047640A002008B5830622D0FFF762
:1044A000EDFF124B10F0020F1CBF01225A71C20720
:1044B00044BF01225A70C20644BF0122DA7042078B
:1044C00044BF012283F82120020744BF012283F860
:1044D0002520820644BF012283F8272083F8281074
:1044E000002008BD6FF01500FBE700BF640A002044
:1044F00070B586B00E46054617F054F9184B0FCB31
:1045000002AC84E80F0001AB2146164A304603F0A6
:10451000EBFA154B08351C6868B10CB1043C0CB9BA
:1045200006B070BD23689B680BB128469847221DD2
:10453000F6D06468F1E71CB9019817F0D9FDEFE7F0
:10454000019E043C002CF7D02368DB6813B1314690
:1045500028469847231DEFD06468002CF1D1EBE783
:10456000A4D90100A80A0020B00A00202DE9F04FCC
:10457000564C99B00646894690460021582202A81A
:104580001D4617F066FB94F8283062798DF80B30E1
:1045900000238DF8083012B101238DF808306378BC
:1045A00023B19DF8083001338DF80830E37823B14A
:1045B0009DF8083001338DF8083094F8213023B18C
:1045C0009DF8083001338DF8083094F8253023B178
:1045D0009DF8083001338DF8083094F8273023B166
:1045E0009DF8083001338DF80830B8F1010F9CBFF9
:1045F00001238DF80C30DAB194F804B0344F4FF049
:10460000000ADA4514D2394607223046019717F0DE
:10461000E5FA0737019B00283CD10F939DF809303C
:1046200001338DF8093001238DF838308DF80A30C8
:10463000284618F059FC2749B5F804A0074602AAF5
:10464000284601F07FFD244BA86806939DF80B30A7
:10465000A5F804A010FA87F72F6005968DF8108052
:104660008DF811900795C3B19DF809209DF8083089
:104670009A4216D19DF80C2008A904A8FFF780FEE5
:1046800094F82C301BB1314602A8FFF731FF19B066
:10469000BDE8F08F0AF1010AB3E79DF80A30002B5C
:1046A000E8D10E4B1C68002CF1D09DF80C50043C56
:1046B000002CECD023685B6813B1294604A8984706
:1046C000231DE4D06468002CF1D1E0E7640A0020E7
:1046D000680A0020FD410000A80A0020B00A00205E
:1046E000F8B5174C05462C220021204617F0B1FAE8
:1046F0002746D5B12B7984F82C302C6864B10FCCC7
:1047000007F130060FC623683360AA683AB10D4B33
:104710001068516803C3F8BDFFF704FDF5E70A49C7
:104720004FF0C873C7E91113F5E7FFF7FBFC064A22
:1047300084F82C504FF0C873C4E91123EBE700BF95
:10474000640A0020A80A00201800280008B10128E7
:1047500006D1054B054983F83000054802F086BCB8
:104760006FF01500704700BF640A00206D4500001F
:10477000940A0020014816F0D1BA00BF4CDA0100BB
:1047800008B530B143683BB1006813F041FD00202B
:1047900008BD6FF4E040FBE70048F9E7EA8FFFFF50
:1047A00038B5044618B90B4B0B485B6898476568E9
:1047B00055B115F00205206807D10146074813F0EE
:1047C000C9FB25600023636038BD1422002117F067
:1047D00040FAF7E740050020CAF90100B80A0020B6
:1047E00010B5044618B9144B14485B6898476368C1
:1047F000CBB92368BBB912484FF0FF324FF0FF33FB
:10480000214613F03BFB08B923681BB90A4B0D483E
:104810005B68984720681422002117F01AFA636831
:1048200043F002036360206818F092FD636843F070
:104830000103636010BD00BF40050020CAF90100FC
:10484000B80A0020F0F9010008B568B1436873B1F7
:1048500000684FF0FF334FF0FF3213F0F5FB054BCC
:10486000002818BF184608BD6FF4E040FBE7024877
:10487000F9E700BFE98FFFFFEA8FFFFF08B50649A0
:1048800006484023142218F02BFDBDE808400449D7
:10489000044816F07FBA00BFD40A0020B80A0020EE
:1048A00064DA010054DA010010B5114C114AA2611A
:1048B0000323C4E90433104BE36122664FF48063A1
:1048C0000E4A0F492362626600231022E01DA36294
:1048D0006362E3622367E3666367A26617F052F9D7
:1048E0000849204617F04EF92023A37110BD00BFE0
:1048F000D40F00201DFA01008B3400207B340020EF
:1049000026FA01002AFA0100F0B5264E07460C46A9
:104910000FCE8DB001AD0FC50FCE0FC596E80700C5
:1049200085E807003846002F38D0002C38D0381FD3
:104930002146024610344B780D781B0443EA056388
:10494000CD782B438D78043143EA05238C4242F81D
:10495000043FF0D1144C04218A07036916D1C3F334
:104960000742A55C1A0EA25C42EA0562C3F3072562
:10497000DBB2655DE35C42EA054242EA03220CAD2C
:1049800021F003032B4453F82C3C534050F8042FE0
:10499000013153402C290361DED101200DB0F0BD5F
:1049A0002046FBE7B4D9010031FA01002DE9F043BC
:1049B000154689B00646002858D0002959D0002A4B
:1049C00059D010230A466846194616F0F7FE2946C4
:1049D00068462A4C16F00AFF05F11007A146A035DB
:1049E000E8466A4610231178013B615C02F8011B1E
:1049F000F9D1684616F03FFF694604A816F074FF27
:104A000001A905A816F070FF02A906A816F06CFF10
:104A100003A907A816F068FF102319460DEB03023F
:104A2000684616F0CBFE39466846103716F0DEFEB3
:104A3000AF42D5D1102498F80030013C19F803306A
:104A400008F8013BF7D1684616F015FF294668467D
:104A500016F0CCFE102319466A46304616F0AEFE1C
:104A600068461022214616F0B6FE012009B0BDE8C6
:104A7000F0830846FAE71046F8E700BF31FA010074
:104A8000094A0A499368096819670949D8664B6851
:104A900043F080534B60002383F31188BFF36F8F83
:104AA0009368186F704700BF6C31002040ED010023
:104AB00000ED00E012498A684FF030001044EFF337
:104AC000098C80E8F01F202080F31188BFF36F8FDE
:104AD0000C4F4FF000664A6A8A603E60D06E002339
:104AE000D36680F3118804B5104600F0FDFBBDE8E5
:104AF000044002F1300090E8F01F8CF30988704701
:104B00006C31002004ED00E01EF0040F0CBFEFF349
:104B10000880EFF30980816911F8021C0229FFD097
:104B200001B517F024F801BD43B2002B08DB0122C8
:104B300000F01F0002FA00F05B09024A42F823006D
:104B4000704700BF00E100E043B2002B0DDB012203
:104B50005B0900F01F0002FA00F02033034A42F81C
:104B60002300BFF34F8FBFF36F8F704700E100E06A
:104B7000054B420900F01F0053F82220012303FADD
:104B800000F01040704700BF00E100E070B54C1C21
:104B9000072C05460E460ED9104A114911485B23D1
:104BA00016F037FA10483146072216F032FA0B4851
:104BB0005B2116F0CAFC6BB2002BACBF03F1604363
:104BC0000A4B4FEA4414B8BF05F00F05E4B2AABF80
:104BD00003F561435C5583F8004370BD31FB010070
:104BE00067FB0100BFEF010082FB010014ED00E054
:104BF00008B572B6044B186A18B100221A6218F090
:104C000048FB62B608BD00BF6C3100202031C0E90E
:104C100018120A44203A22F0070209491360009B47
:104C20005360019B9360029BD3604FF08073D3610C
:104C300021F00101002391610265C366704700BF46
:104C400047B00100094A0346906870B11633006E00
:104C500002D110F1160F04D981422CBF002101218D
:104C600000E00021002908BF002070476C310020BF
:104C7000F8B506460C4615461F4600F019FB0B4BCF
:104C800020352C449E60304624F0070400F02CFBB5
:104C9000384684F30988002163B681F31188BFF395
:104CA0006F8F0022002316F0CEF900BF6C31002078
:104CB000014910220A60704710ED00E072B64040D2
:104CC00080F31188BFF36F8FBFF34F8F30BF62B691
:104CD000BFF36F8F704700BF37B505460C46C9B1AB
:104CE0008B680093D1E900230E48452116F091F915
:104CF00063690093D4E903230B48452116F089F931
:104D0000E2690A48452116F084F9A269084845215C
:104D100016F07FF92146284603B0BDE8304012F076
:104D2000F7BD00BFB7FB0100EBFB01001FFC01005A
:104D300033FC010030BFFFF7FDBF00BF0E4A08B5CE
:104D40000E4B22F07F029A60BFF34F8FBFF36F8F3D
:104D5000D3F8882022F47002C3F88820EFF314837C
:104D600023F0040383F3148812F052FE12F05AFE6B
:104D700000F054FA12F094FE0000000000ED00E094
:104D800001B572B60B4A106A00281EBF00211162DD
:104D900018F07FFA62B6EFF30580A0F110004FEA39
:104DA000C0000549014409C99847BDE801400349CD
:104DB000084700006C310020BCD601000152000001
:104DC00016F06DFF202080F3118808484FF4006131
:104DD000401880F30988EFF314800221084380F320
:104DE0001488BFF36F8FFFF7A9FF0000E048002091
:104DF000EFF30880EFF30981724601B500F02EF958
:104E000001BD00BF2DE9F041354C064688463548C6
:104E10004521154616F0FDF8A26AD70603D532489B
:104E2000452116F0F6F8A36A1C0703D52F48452143
:104E300016F0EFF82A4CA36A98073ED545212C4876
:104E400016F0E7F8676BA36A19060BD529483A46AE
:104E5000452116F0DEF8B8F1000F03D0A36A23F065
:104E60008003A3621E4CA26AD20703D522484521C3
:104E700016F0CFF8A36A9B0603D52048452116F00B
:104E8000C8F8174B9C6A14F010040CD05C6814F43A
:104E9000006408D031463846FFF7D4FE044678B1A6
:104EA00080F3098802240E4A936A43F0FF03936259
:104EB00000232B702046BDE8F0816FF01507D1E785
:104EC0000F4A104910484FF4987316F0A2F80F4893
:104ED00016F09FF80A484FF4987116F036FBE2E797
:104EE00000ED00E066FC010081FC0100B9FC01005E
:104EF000D1FC0100EEFC010009FD01002DFD0100C7
:104F000061FD0100B71B0200BFEF01009BFD010026
:104F100070B5234C06460D462248452116F079F817
:104F2000A26AD10403D52048452116F072F8A36A7D
:104F30001A0503D51D48452116F06BF8184CA36AD5
:104F40009B0510D51A48452116F063F8A26BA36A99
:104F5000180408D51748452116F05BF81EB1A36A5E
:104F600023F40043A3620E4CA36A590503D51248EB
:104F7000452116F04EF8A36ADA050BD50F484521F6
:104F800016F047F8064A936A002043F47F43936281
:104F9000287070BDA36A9B04F4D509484521EFE74A
:104FA00000ED00E0BEFD0100D9FD0100B9FC0100EB
:104FB000EFFD01000DFE010027FE010047FE01008C
:104FC0002DFD010010B51D4C1D48452116F021F89E
:104FD000A26A930103D51B48452116F01AF8A36A6B
:104FE000DC0103D51848452116F013F8134CA26ACA
:104FF000100303D51548452116F00BF8A36A590391
:1050000003D51348452116F004F80C4CA26A92030C
:1050100003D51048452115F0FCFFA36ADB0303D537
:105020000D48452115F0F5FF044A936A6FEA0343E2
:105030006FEA13439362002010BD00BF00ED00E053
:1050400064FE010081FE010099FE0100B8FE01002E
:10505000DBFE010005FF010024FF01002DE9F04106
:10506000534BD3F804808AB00D46C8F308070026D6
:1050700086F31188BFF36F8F02F07F43B3F17F4F48
:1050800007D102F00C03082B14D14A48452115F032
:10509000C0FF494A49494A4840F2B13315F0B9FFC7
:1050A000484815F0B6FF444840F2B13116F04DFAC9
:1050B000002505E012075CBF05460126002DE8D05B
:1050C0000023FA1E8DF807301C461346092B5CD8C6
:1050D000DFE803F0055054345B5B5B5B5B583A4898
:1050E000452115F096FF324B8DF80740DC6A14F02D
:1050F000020405D03548452115F08BFF002420E03F
:10510000DB6A5B001DD53248452115F082FF314B2B
:105110001B7833B10DF1070201212846FFF772FE1B
:105120000EE02D4B1B782BB10DF107010120FFF78D
:10513000EFFE05E0294B1B889BB213B1FFF742FF3E
:1051400004469DF8073093B92022294602A816F09C
:1051500055FD099B36B3C3F3080222B96FEA532306
:105160006FEA4323099302A92046FFF7B5FD0AB071
:10517000BDE8F0810DF107020021CEE70DF1070136
:105180000020D4E716484521B6E71649164A1748C5
:1051900018F4F87F08BF0A46A7F11003452115F05F
:1051A00038FFABE723F4FF7323F00103DAE700BF16
:1051B00000ED00E082FF010061FD0100B2FF01008F
:1051C000BFEF0100C5FF0100030002001F00020045
:1051D0004500020028ED00E029ED00E02AED00E0A6
:1051E0006900020054FF010069FF0100A4000200F1
:1051F000024A536943F010035361704700ED00E029
:10520000044B9968586A884203D003494FF0805292
:105210000A6070476C31002004ED00E00448002370
:105220002021C2180133302B82F80013F9D17047C6
:1052300000E100E038B504464FF02003EFF311859C
:1052400083F31188BFF36F8F037BDB070CD5124903
:10525000124A1348232315F0DCFE124815F0D9FE3C
:105260000E48232116F071F9204613F0C7FE0E4BAD
:105270009B68A3420BD10D4B5A68C2F3080212B9C6
:105280002846FFF7FDFB5A6842F080525A602846D4
:10529000BDE8384018F08FB8FD000200BC000200E5
:1052A000BFEF01002B0102006C31002000ED00E097
:1052B0001FB5084B0193084B0293084B039301ABB6
:1052C0000093074A074B0121684600F0E1F805B05A
:1052D0005DF804FB000000200000000000000B0649
:1052E00000000020000004201FB5036E203B019346
:1052F000064B2022CDE90223012101AB6846009331
:1053000000F0EEF805B05DF804FB00BF00000B15DF
:10531000DFF898C0F8B50646002710468F420FDA2E
:1053200056F827E0DEF80440D4B383B1651E2C4262
:1053300007D01C483A46452115F06BFE6FF015006A
:10534000F8BD1F2CF5D9DEF800201542F1D1202C34
:10535000C2B2DEF80050DEF808000FD9B4F1004FF9
:105360000ED8013CB4FA84F4C4F11F046400072A87
:1053700044EA000406D90C484521DDE70824F6E795
:105380003E24F4E725F01F05154345F0100544F0D1
:105390000104CCF80820501CCCF80C50CCF810407C
:1053A0000137BBE74A0102007201020090ED00E004
:1053B000034B05225A60BFF34F8FBFF36F8F7047C7
:1053C00090ED00E0BFF35F8F014B00225A60704701
:1053D00090ED00E0254910B50C68082C13D940F277
:1053E0003913234A2349244815F013FE2348082281
:1053F000214615F00EFE1E4840F2391116F0A5F8B0
:105400004FF0FF3010BDFFF7DDFF48681C49002258
:10541000944200F10C0019D11A4B1C70FFF7C8FF21
:105420000B68C3F30723082B0ED01749104A124804
:1054300040F2571315F0EDFD144815F0EAFD0C4845
:1054400040F2571116F081F80020DBE78A6050F82F
:105450000C3C23F01F03134343F01003CB6050F8C0
:10546000043C43F001030B610132D1E778DA01001B
:105470009D010200B71B0200BFEF0100DD01020029
:1054800090ED00E08B380020110202006102020062
:1054900038B50E4D01232A780C46FFF739FF2870E6
:1054A000163011D14FF48173094A0A490A4815F0A0
:1054B000B0FD2146094815F0ACFDBDE83840044870
:1054C0004FF4817116F041B838BD00BF8B38002011
:1054D0009D010200B71B0200BFEF01008202020023
:1054E00010B5124A002312780C46FFF711FF10F195
:1054F000160F08D00E4B0022072800DD10BD986063
:105500001A610130F8E70B4A0B490C4840F22113AD
:1055100015F07FFD21460A4815F07BFDBDE81040DF
:10552000044840F2211116F010B800BF8B3800205B
:1055300090ED00E09D010200B71B0200BFEF0100EB
:10554000AE020200014B1860704700BF80010020CE
:105550004FF02003EFF3118283F31188BFF36F8FB5
:1055600006490123C1F840354FF08041C1F8783534
:1055700082F31188BFF36F8F0020704700E0014075
:105580004FF08043C0B2C3F81C05BFF34F8F0549ED
:10559000054BCA6802F4E0621343CB60BFF34F8F40
:1055A00000BFFDE700ED00E00400FA0520B1034B69
:1055B000800143F001031847704700BF10DA010073
:1055C0000E4B402970B528BF40210D4C46181D4692
:1055D000B04203F1020304D1002305F8113007485B
:1055E00070BD02781209A25C03F8022C10F8012B9E
:1055F00002F00F02A25C03F8012CE9E78C380020CE
:10560000EE020200F0B40278012A04460B4616D0DE
:10561000022A2CD08AB9194A0D4602F110071068E7
:1056200051682E4603C60832BA423546F7D1127881
:10563000327062885A73120A9A73F0BC70470F4A2C
:105640000D4602F11007106851682E4603C6083255
:10565000BA423546F7D11278327062685A73C2F393
:105660000721120CDA73120A99731A74E5E70146DE
:10567000F0BC1122184616F0C1BA00BF06030200A2
:10568000836802481A78572115F0C3BC170302003B
:10569000836810B51C88204602F0AEF930B9224666
:1056A0000448BDE81040452115F0B3BCBDE81040EA
:1056B00016F01EBD4403020073B58568B5F801609D
:1056C000304602F099F9044630B91C48324645216B
:1056D00015F09FFC02B070BD2B78BBB92A79EB782E
:1056E00043EA0223A0F89230AA796B7943EA0223B5
:1056F000A0F89830EB792A7A43EA0223A0F89A308E
:1057000001F0ECFE204616F0F3FCE3E71A2BF9D18A
:10571000C378012BF6D14FF48061043016F063FB9F
:105720004305EFD4D4F8943000936946D4F89C3004
:105730000193204602F0C4FDE4E700BF44030200E9
:1057400008B581898068FFF73BFFBDE80840024645
:105750005721014815F05DBC6D03020037B502EB1F
:10576000C3030546144608462278AA4210D00834DE
:105770009C42F9D1848980682146FFF721FF2346A6
:1057800000902A460B48572115F043FC03B030BD6A
:1057900082896378934207D907482B46452103B095
:1057A000BDE8304015F035BC636803B0BDE830405B
:1057B000184700BFBD0302009603020010B5012187
:1057C0000446083011F084F82146034A0078BDE809
:1057D00010400823FFF7C2BF98DA01002DE9F3411A
:1057E000064690792C4D0F46144610F02FFE854248
:1057F0000ED0A479204610F029FE2346CDE90005FD
:1058000032462648572115F004FC02B0BDE8F0816D
:10581000204610F023FE224D4FF00C0808FB0053E9
:105820005B88B3420AD0204610F018FE08FB0050F7
:10583000324643881B48572115F0EBFB204610F0F9
:105840000DFE0C2606FB005043685BB157B920469D
:1058500010F004FE06FB00504368D3E900011A7AF9
:1058600016F0DFFA204610F0F9FD0C2606FB00507A
:105870008368002BC9D0204610F0F0FD70432F54F0
:10588000204610F0EBFD06FB0055A86802B0BDE80D
:10589000F04114F02BB800BF30080020E4030200F0
:1058A0007C1000201E040200F8B50B4F06460025B0
:1058B000FB79ECB2A34202D86FF0010409E0C4EB1B
:1058C000C40107223944304616F088F90135002812
:1058D000EED12046F8BD00BF000000202DE9F84FB2
:1058E00000258768DFF80491A8463B789D4201DBDC
:1058F000BDE8F88F07EB8503B3F801B0B3F8036098
:105900004FF02003EFF3118A83F31188BFF36F8FF9
:10591000584602F071F8044650B98AF31188BFF373
:105920006F8F30485A46452115F073FB0135DCE78F
:105930008AF31188BFF36F8F00F1280A46B34FF046
:105940002003EFF3118283F31188BFF36F8FE369B4
:105950006BB1013BE36182F31188BFF36F8F204687
:1059600001F0B8FD013E13F0C1FFB6B2E6E763698E
:105970002BB1A169186860618B4208BFA06182F3F6
:105980001188BFF36F8F3BB91748452115F041FBD4
:10599000204616F0ADFBC9E74FF02002EFF311816E
:1059A00082F31188BFF36F8FDA68E261C3F8008079
:1059B000626AC3F80C808AB9C4E9083381F311889C
:1059C000BFF36F8F012104F1300016F00CFAC3070A
:1059D000C5D45146484617F0DBFCC0E7136063624C
:1059E000ECE700BF5604020077040200B03100204B
:1059F00038B504210446083010F06AFF4578017874
:105A000040882246FFF7EAFE25B10348BDE838404A
:105A100013F06CBF38BD00BFD000002038B50321A3
:105A20000446083010F054FFA36805781978B0F8E0
:105A300001002246FFF7D2FE25B10348BDE83840F9
:105A400013F054BF38BD00BFD00000202DE9F84F3F
:105A50004FF0FF3205464FF0FF331C480E4617F05B
:105A60002EFA044658B91A491A481B4A40F227131D
:105A700015F0CFFA184840F2271115F066FD04F131
:105A8000080B00210027584610F022FE27752046FB
:105A900010F0E4FCDFF844804FF00C0A0AFB0080B1
:105AA0004580204610F0DAFC0AFB00808760204623
:105AB00010F0D4FC0AFB008003214760584610F028
:105AC00029FF867005802046BDE8F88F3008002049
:105AD000D9150200BFEF0100930402007C100020E2
